{
  "contractName": "BeyondToken",
  "abi": [
    {
      "constant": true,
      "inputs": [],
      "name": "name",
      "outputs": [
        {
          "name": "",
          "type": "string"
        }
      ],
      "payable": false,
      "stateMutability": "view",
      "type": "function"
    },
    {
      "constant": false,
      "inputs": [
        {
          "name": "spender",
          "type": "address"
        },
        {
          "name": "value",
          "type": "uint256"
        }
      ],
      "name": "approve",
      "outputs": [
        {
          "name": "",
          "type": "bool"
        }
      ],
      "payable": false,
      "stateMutability": "nonpayable",
      "type": "function"
    },
    {
      "constant": true,
      "inputs": [],
      "name": "totalSupply",
      "outputs": [
        {
          "name": "",
          "type": "uint256"
        }
      ],
      "payable": false,
      "stateMutability": "view",
      "type": "function"
    },
    {
      "constant": true,
      "inputs": [],
      "name": "maxCap",
      "outputs": [
        {
          "name": "",
          "type": "uint256"
        }
      ],
      "payable": false,
      "stateMutability": "view",
      "type": "function"
    },
    {
      "constant": false,
      "inputs": [
        {
          "name": "from",
          "type": "address"
        },
        {
          "name": "to",
          "type": "address"
        },
        {
          "name": "value",
          "type": "uint256"
        }
      ],
      "name": "transferFrom",
      "outputs": [
        {
          "name": "",
          "type": "bool"
        }
      ],
      "payable": false,
      "stateMutability": "nonpayable",
      "type": "function"
    },
    {
      "constant": true,
      "inputs": [],
      "name": "decimals",
      "outputs": [
        {
          "name": "",
          "type": "uint8"
        }
      ],
      "payable": false,
      "stateMutability": "view",
      "type": "function"
    },
    {
      "constant": true,
      "inputs": [],
      "name": "cap",
      "outputs": [
        {
          "name": "",
          "type": "uint256"
        }
      ],
      "payable": false,
      "stateMutability": "view",
      "type": "function"
    },
    {
      "constant": true,
      "inputs": [],
      "name": "initialSupply",
      "outputs": [
        {
          "name": "",
          "type": "uint256"
        }
      ],
      "payable": false,
      "stateMutability": "view",
      "type": "function"
    },
    {
      "constant": false,
      "inputs": [
        {
          "name": "spender",
          "type": "address"
        },
        {
          "name": "addedValue",
          "type": "uint256"
        }
      ],
      "name": "increaseAllowance",
      "outputs": [
        {
          "name": "success",
          "type": "bool"
        }
      ],
      "payable": false,
      "stateMutability": "nonpayable",
      "type": "function"
    },
    {
      "constant": false,
      "inputs": [],
      "name": "unpause",
      "outputs": [],
      "payable": false,
      "stateMutability": "nonpayable",
      "type": "function"
    },
    {
      "constant": false,
      "inputs": [
        {
          "name": "to",
          "type": "address"
        },
        {
          "name": "value",
          "type": "uint256"
        }
      ],
      "name": "mint",
      "outputs": [
        {
          "name": "",
          "type": "bool"
        }
      ],
      "payable": false,
      "stateMutability": "nonpayable",
      "type": "function"
    },
    {
      "constant": false,
      "inputs": [
        {
          "name": "value",
          "type": "uint256"
        }
      ],
      "name": "burn",
      "outputs": [],
      "payable": false,
      "stateMutability": "nonpayable",
      "type": "function"
    },
    {
      "constant": true,
      "inputs": [
        {
          "name": "account",
          "type": "address"
        }
      ],
      "name": "isPauser",
      "outputs": [
        {
          "name": "",
          "type": "bool"
        }
      ],
      "payable": false,
      "stateMutability": "view",
      "type": "function"
    },
    {
      "constant": true,
      "inputs": [],
      "name": "version",
      "outputs": [
        {
          "name": "",
          "type": "string"
        }
      ],
      "payable": false,
      "stateMutability": "view",
      "type": "function"
    },
    {
      "constant": true,
      "inputs": [],
      "name": "paused",
      "outputs": [
        {
          "name": "",
          "type": "bool"
        }
      ],
      "payable": false,
      "stateMutability": "view",
      "type": "function"
    },
    {
      "constant": false,
      "inputs": [],
      "name": "renouncePauser",
      "outputs": [],
      "payable": false,
      "stateMutability": "nonpayable",
      "type": "function"
    },
    {
      "constant": true,
      "inputs": [
        {
          "name": "owner",
          "type": "address"
        }
      ],
      "name": "balanceOf",
      "outputs": [
        {
          "name": "",
          "type": "uint256"
        }
      ],
      "payable": false,
      "stateMutability": "view",
      "type": "function"
    },
    {
      "constant": false,
      "inputs": [
        {
          "name": "from",
          "type": "address"
        },
        {
          "name": "value",
          "type": "uint256"
        }
      ],
      "name": "burnFrom",
      "outputs": [],
      "payable": false,
      "stateMutability": "nonpayable",
      "type": "function"
    },
    {
      "constant": false,
      "inputs": [
        {
          "name": "account",
          "type": "address"
        }
      ],
      "name": "addPauser",
      "outputs": [],
      "payable": false,
      "stateMutability": "nonpayable",
      "type": "function"
    },
    {
      "constant": false,
      "inputs": [],
      "name": "pause",
      "outputs": [],
      "payable": false,
      "stateMutability": "nonpayable",
      "type": "function"
    },
    {
      "constant": true,
      "inputs": [],
      "name": "symbol",
      "outputs": [
        {
          "name": "",
          "type": "string"
        }
      ],
      "payable": false,
      "stateMutability": "view",
      "type": "function"
    },
    {
      "constant": false,
      "inputs": [
        {
          "name": "account",
          "type": "address"
        }
      ],
      "name": "addMinter",
      "outputs": [],
      "payable": false,
      "stateMutability": "nonpayable",
      "type": "function"
    },
    {
      "constant": false,
      "inputs": [],
      "name": "renounceMinter",
      "outputs": [],
      "payable": false,
      "stateMutability": "nonpayable",
      "type": "function"
    },
    {
      "constant": false,
      "inputs": [
        {
          "name": "spender",
          "type": "address"
        },
        {
          "name": "subtractedValue",
          "type": "uint256"
        }
      ],
      "name": "decreaseAllowance",
      "outputs": [
        {
          "name": "success",
          "type": "bool"
        }
      ],
      "payable": false,
      "stateMutability": "nonpayable",
      "type": "function"
    },
    {
      "constant": false,
      "inputs": [
        {
          "name": "to",
          "type": "address"
        },
        {
          "name": "value",
          "type": "uint256"
        }
      ],
      "name": "transfer",
      "outputs": [
        {
          "name": "",
          "type": "bool"
        }
      ],
      "payable": false,
      "stateMutability": "nonpayable",
      "type": "function"
    },
    {
      "constant": true,
      "inputs": [
        {
          "name": "account",
          "type": "address"
        }
      ],
      "name": "isMinter",
      "outputs": [
        {
          "name": "",
          "type": "bool"
        }
      ],
      "payable": false,
      "stateMutability": "view",
      "type": "function"
    },
    {
      "constant": true,
      "inputs": [
        {
          "name": "owner",
          "type": "address"
        },
        {
          "name": "spender",
          "type": "address"
        }
      ],
      "name": "allowance",
      "outputs": [
        {
          "name": "",
          "type": "uint256"
        }
      ],
      "payable": false,
      "stateMutability": "view",
      "type": "function"
    },
    {
      "inputs": [],
      "payable": false,
      "stateMutability": "nonpayable",
      "type": "constructor"
    },
    {
      "anonymous": false,
      "inputs": [
        {
          "indexed": false,
          "name": "account",
          "type": "address"
        }
      ],
      "name": "Paused",
      "type": "event"
    },
    {
      "anonymous": false,
      "inputs": [
        {
          "indexed": false,
          "name": "account",
          "type": "address"
        }
      ],
      "name": "Unpaused",
      "type": "event"
    },
    {
      "anonymous": false,
      "inputs": [
        {
          "indexed": true,
          "name": "account",
          "type": "address"
        }
      ],
      "name": "PauserAdded",
      "type": "event"
    },
    {
      "anonymous": false,
      "inputs": [
        {
          "indexed": true,
          "name": "account",
          "type": "address"
        }
      ],
      "name": "PauserRemoved",
      "type": "event"
    },
    {
      "anonymous": false,
      "inputs": [
        {
          "indexed": true,
          "name": "account",
          "type": "address"
        }
      ],
      "name": "MinterAdded",
      "type": "event"
    },
    {
      "anonymous": false,
      "inputs": [
        {
          "indexed": true,
          "name": "account",
          "type": "address"
        }
      ],
      "name": "MinterRemoved",
      "type": "event"
    },
    {
      "anonymous": false,
      "inputs": [
        {
          "indexed": true,
          "name": "from",
          "type": "address"
        },
        {
          "indexed": true,
          "name": "to",
          "type": "address"
        },
        {
          "indexed": false,
          "name": "value",
          "type": "uint256"
        }
      ],
      "name": "Transfer",
      "type": "event"
    },
    {
      "anonymous": false,
      "inputs": [
        {
          "indexed": true,
          "name": "owner",
          "type": "address"
        },
        {
          "indexed": true,
          "name": "spender",
          "type": "address"
        },
        {
          "indexed": false,
          "name": "value",
          "type": "uint256"
        }
      ],
      "name": "Approval",
      "type": "event"
    }
  ],
  "bytecode": "0x60c0604052600c60808190527f4265796f6e6420546f6b656e000000000000000000000000000000000000000060a09081526200004091603d9190620005b1565b506040805180820190915260038082527f425944000000000000000000000000000000000000000000000000000000000060209092019182526200008791603e91620005b1565b50603f805460ff1916601217905560408051808201825260038082527f312e3000000000000000000000000000000000000000000000000000000000006020909201918252620000d9929190620005b1565b506b204fce5e3e250261100000006041556b033b2e3c9fd0803ce80000006042553480156200010757600080fd5b50604154603d805460408051602060026001851615610100026000190190941693909304601f81018490048402820184019092528181529291830182828015620001955780601f10620001695761010080835404028352916020019162000195565b820191906000526020600020905b8154815290600101906020018083116200017757829003601f168201915b5050603e8054604080516020601f6002600019610100600188161502019095169490940493840181900481028201810190925282815295509193509150830182828015620002275780601f10620001fb5761010080835404028352916020019162000227565b820191906000526020600020905b8154815290600101906020018083116200020957829003601f168201915b5050603f54855160ff90911693506200024a9250603691506020860190620005b1565b50815162000260906037906020850190620005b1565b506038805460ff191660ff92909216919091179055506200028c905033640100000000620002db810204565b620002a0336401000000006200032d810204565b603b805460ff1916905560008111620002b857600080fd5b603c55604254620002d49033906401000000006200037f810204565b5062000653565b620002f660398264010000000062001009620003bf82021704565b604051600160a060020a038216907f6ae172837ea30b801fbfcdd4108aa1d5bf8ff775444fd70256b44e6bf3dfc3f690600090a250565b62000348603a8264010000000062001009620003bf82021704565b604051600160a060020a038216907f6719d08c1888103bea251a4ed56406bd0c3e69723c8a1686e017e7bbe159b6f890600090a250565b600062000395336401000000006200041a810204565b1515620003a157600080fd5b620003b683836401000000006200043d810204565b50600192915050565b600160a060020a0381161515620003d557600080fd5b620003ea828264010000000062000497810204565b15620003f557600080fd5b600160a060020a0316600090815260209190915260409020805460ff19166001179055565b60006200043760398364010000000062000bb36200049782021704565b92915050565b603c546200046d8262000458640100000000620004cf810204565b9064010000000062000eff620004d682021704565b11156200047957600080fd5b62000493828264010000000062000f11620004f082021704565b5050565b6000600160a060020a0382161515620004af57600080fd5b50600160a060020a03166000908152602091909152604090205460ff1690565b6035545b90565b600082820183811015620004e957600080fd5b9392505050565b600160a060020a03821615156200050657600080fd5b60355462000523908264010000000062000eff620004d682021704565b603555600160a060020a03821660009081526033602052604090205462000559908264010000000062000eff620004d682021704565b600160a060020a03831660008181526033602090815260408083209490945583518581529351929391927fddf252ad1be2c89b69c2b068fc378daa952ba7f163c4a11628f55a4df523b3ef9281900390910190a35050565b828054600181600116156101000203166002900490600052602060002090601f016020900481019282601f10620005f457805160ff191683800117855562000624565b8280016001018555821562000624579182015b828111156200062457825182559160200191906001019062000607565b506200063292915062000636565b5090565b620004d391905b808211156200063257600081556001016200063d565b61108380620006636000396000f30060806040526004361061015e5763ffffffff7c010000000000000000000000000000000000000000000000000000000060003504166306fdde038114610163578063095ea7b3146101ed57806318160ddd1461022557806323548b8b1461024c57806323b872dd14610261578063313ce5671461028b578063355274ea146102b6578063378dc3dc146102cb57806339509351146102e05780633f4ba83a1461030457806340c10f191461031b57806342966c681461033f57806346fbf68e1461035757806354fd4d50146103785780635c975abb1461038d5780636ef8d66d146103a257806370a08231146103b757806379cc6790146103d857806382dc1ec4146103fc5780638456cb591461041d57806395d89b4114610432578063983b2d56146104475780639865027514610468578063a457c2d71461047d578063a9059cbb146104a1578063aa271e1a146104c5578063dd62ed3e146104e6575b600080fd5b34801561016f57600080fd5b5061017861050d565b6040805160208082528351818301528351919283929083019185019080838360005b838110156101b257818101518382015260200161019a565b50505050905090810190601f1680156101df5780820380516001836020036101000a031916815260200191505b509250505060405180910390f35b3480156101f957600080fd5b50610211600160a060020a036004351660243561059b565b604080519115158252519081900360200190f35b34801561023157600080fd5b5061023a6105bf565b60408051918252519081900360200190f35b34801561025857600080fd5b5061023a6105c5565b34801561026d57600080fd5b50610211600160a060020a03600435811690602435166044356105cb565b34801561029757600080fd5b506102a06105f1565b6040805160ff9092168252519081900360200190f35b3480156102c257600080fd5b5061023a6105fa565b3480156102d757600080fd5b5061023a610600565b3480156102ec57600080fd5b50610211600160a060020a0360043516602435610606565b34801561031057600080fd5b50610319610623565b005b34801561032757600080fd5b50610211600160a060020a0360043516602435610687565b34801561034b57600080fd5b506103196004356106b0565b34801561036357600080fd5b50610211600160a060020a03600435166106bd565b34801561038457600080fd5b506101786106d6565b34801561039957600080fd5b5061021161072f565b3480156103ae57600080fd5b50610319610738565b3480156103c357600080fd5b5061023a600160a060020a0360043516610743565b3480156103e457600080fd5b50610319600160a060020a036004351660243561075e565b34801561040857600080fd5b50610319600160a060020a036004351661076c565b34801561042957600080fd5b50610319610789565b34801561043e57600080fd5b506101786107ef565b34801561045357600080fd5b50610319600160a060020a036004351661084a565b34801561047457600080fd5b50610319610867565b34801561048957600080fd5b50610211600160a060020a0360043516602435610870565b3480156104ad57600080fd5b50610211600160a060020a036004351660243561088d565b3480156104d157600080fd5b50610211600160a060020a03600435166108aa565b3480156104f257600080fd5b5061023a600160a060020a03600435811690602435166108bd565b603d805460408051602060026001851615610100026000190190941693909304601f810184900484028201840190925281815292918301828280156105935780601f1061056857610100808354040283529160200191610593565b820191906000526020600020905b81548152906001019060200180831161057657829003601f168201915b505050505081565b603b5460009060ff16156105ae57600080fd5b6105b883836108e8565b9392505050565b60355490565b60415481565b603b5460009060ff16156105de57600080fd5b6105e9848484610966565b949350505050565b603f5460ff1681565b603c5490565b60425481565b603b5460009060ff161561061957600080fd5b6105b88383610a03565b61062c336106bd565b151561063757600080fd5b603b5460ff16151561064857600080fd5b603b805460ff191690556040805133815290517f5db9ee0a495bf2e6ff9c91a7834c1ba4fdd244a5e8aa4e537bd38aeae4b073aa9181900360200190a1565b6000610692336108aa565b151561069d57600080fd5b6106a78383610ab3565b50600192915050565b6106ba3382610ae3565b50565b60006106d0603a8363ffffffff610bb316565b92915050565b604080548151602060026001841615610100026000190190931692909204601f810183900483028201830184528082529092918301828280156105935780601f1061056857610100808354040283529160200191610593565b603b5460ff1690565b61074133610bea565b565b600160a060020a031660009081526033602052604090205490565b6107688282610c32565b5050565b610775336106bd565b151561078057600080fd5b6106ba81610cc4565b610792336106bd565b151561079d57600080fd5b603b5460ff16156107ad57600080fd5b603b805460ff191660011790556040805133815290517f62e78cea01bee320cd4e420270b5ea74000d11b0c9f74754ebdbfc544b05a2589181900360200190a1565b603e805460408051602060026001851615610100026000190190941693909304601f810184900484028201840190925281815292918301828280156105935780601f1061056857610100808354040283529160200191610593565b610853336108aa565b151561085e57600080fd5b6106ba81610d0c565b61074133610d54565b603b5460009060ff161561088357600080fd5b6105b88383610d9c565b603b5460009060ff16156108a057600080fd5b6105b88383610de7565b60006106d060398363ffffffff610bb316565b600160a060020a03918216600090815260346020908152604080832093909416825291909152205490565b6000600160a060020a03831615156108ff57600080fd5b336000818152603460209081526040808320600160a060020a03881680855290835292819020869055805186815290519293927f8c5be1e5ebec7d5bd14f71427d1e84f3dd0314c0f7b2291e5b200ac8c7c3b925929181900390910190a350600192915050565b600160a060020a038316600090815260346020908152604080832033845290915281205482111561099657600080fd5b600160a060020a03841660009081526034602090815260408083203384529091529020546109ca908363ffffffff610df416565b600160a060020a03851660009081526034602090815260408083203384529091529020556109f9848484610e0b565b5060019392505050565b6000600160a060020a0383161515610a1a57600080fd5b336000908152603460209081526040808320600160a060020a0387168452909152902054610a4e908363ffffffff610eff16565b336000818152603460209081526040808320600160a060020a0389168085529083529281902085905580519485525191937f8c5be1e5ebec7d5bd14f71427d1e84f3dd0314c0f7b2291e5b200ac8c7c3b925929081900390910190a350600192915050565b603c54610ace82610ac26105bf565b9063ffffffff610eff16565b1115610ad957600080fd5b6107688282610f11565b600160a060020a0382161515610af857600080fd5b600160a060020a038216600090815260336020526040902054811115610b1d57600080fd5b603554610b30908263ffffffff610df416565b603555600160a060020a038216600090815260336020526040902054610b5c908263ffffffff610df416565b600160a060020a0383166000818152603360209081526040808320949094558351858152935191937fddf252ad1be2c89b69c2b068fc378daa952ba7f163c4a11628f55a4df523b3ef929081900390910190a35050565b6000600160a060020a0382161515610bca57600080fd5b50600160a060020a03166000908152602091909152604090205460ff1690565b610bfb603a8263ffffffff610fbd16565b604051600160a060020a038216907fcd265ebaf09df2871cc7bd4133404a235ba12eff2041bb89d9c714a2621c7c7e90600090a250565b600160a060020a0382166000908152603460209081526040808320338452909152902054811115610c6257600080fd5b600160a060020a0382166000908152603460209081526040808320338452909152902054610c96908263ffffffff610df416565b600160a060020a03831660009081526034602090815260408083203384529091529020556107688282610ae3565b610cd5603a8263ffffffff61100916565b604051600160a060020a038216907f6719d08c1888103bea251a4ed56406bd0c3e69723c8a1686e017e7bbe159b6f890600090a250565b610d1d60398263ffffffff61100916565b604051600160a060020a038216907f6ae172837ea30b801fbfcdd4108aa1d5bf8ff775444fd70256b44e6bf3dfc3f690600090a250565b610d6560398263ffffffff610fbd16565b604051600160a060020a038216907fe94479a9f7e1952cc78f2d6baab678adc1b772d936c6583def489e524cb6669290600090a250565b6000600160a060020a0383161515610db357600080fd5b336000908152603460209081526040808320600160a060020a0387168452909152902054610a4e908363ffffffff610df416565b60006106a7338484610e0b565b60008083831115610e0457600080fd5b5050900390565b600160a060020a038316600090815260336020526040902054811115610e3057600080fd5b600160a060020a0382161515610e4557600080fd5b600160a060020a038316600090815260336020526040902054610e6e908263ffffffff610df416565b600160a060020a038085166000908152603360205260408082209390935590841681522054610ea3908263ffffffff610eff16565b600160a060020a0380841660008181526033602090815260409182902094909455805185815290519193928716927fddf252ad1be2c89b69c2b068fc378daa952ba7f163c4a11628f55a4df523b3ef92918290030190a3505050565b6000828201838110156105b857600080fd5b600160a060020a0382161515610f2657600080fd5b603554610f39908263ffffffff610eff16565b603555600160a060020a038216600090815260336020526040902054610f65908263ffffffff610eff16565b600160a060020a03831660008181526033602090815260408083209490945583518581529351929391927fddf252ad1be2c89b69c2b068fc378daa952ba7f163c4a11628f55a4df523b3ef9281900390910190a35050565b600160a060020a0381161515610fd257600080fd5b610fdc8282610bb3565b1515610fe757600080fd5b600160a060020a0316600090815260209190915260409020805460ff19169055565b600160a060020a038116151561101e57600080fd5b6110288282610bb3565b1561103257600080fd5b600160a060020a0316600090815260209190915260409020805460ff191660011790555600a165627a7a723058203438a06f7769e64c19156f70a6be33c027e3f07fd038f475df61b1b0dc0c61730029",
  "source": "pragma solidity ^0.4.24;\n\nimport \"openzeppelin-solidity/contracts/token/ERC20/ERC20.sol\";\nimport \"openzeppelin-solidity/contracts/token/ERC20/ERC20Detailed.sol\";\nimport \"openzeppelin-solidity/contracts/token/ERC20/ERC20Mintable.sol\";\nimport \"openzeppelin-solidity/contracts/token/ERC20/ERC20Burnable.sol\";\nimport \"openzeppelin-solidity/contracts/token/ERC20/ERC20Pausable.sol\";\nimport \"openzeppelin-solidity/contracts/token/ERC20/ERC20Capped.sol\";\n\nimport \"zos-lib/contracts/Initializable.sol\"; // upgradeable\n\ncontract BeyondToken is Initializable,\n                        ERC20,\n                        ERC20Detailed, \n                        ERC20Mintable,\n                        ERC20Burnable,\n                        ERC20Pausable,\n                        ERC20Capped {\n    /**\n     * Variables\n     */\n    string public name = \"Beyond Token\";\n    string public symbol = \"BYD\";\n    uint8 public decimals = 18;\n    string public version = \"1.0\";\n    uint256 public maxCap = 10 * (10 ** 9) * (10 ** 18); //10 billion * 10^18\n    uint256 public initialSupply = 1 * (10 ** 9) * (10 ** 18); //1 billion * 10^18\n\n    /**\n     * Constructor function\n     */\n    constructor()\n        ERC20()\n        ERC20Detailed(name, symbol, decimals)\n        ERC20Mintable()\n        ERC20Burnable()\n        ERC20Pausable()\n        ERC20Capped(maxCap)\n        public\n    {\n        mint(msg.sender, initialSupply);\n    }\n}\n",
  "sourcePath": "/Volumes/Data/BlockChain/Project/BeyondToken/contracts/BeyondToken.sol",
  "compiler": {
    "name": "solc",
    "version": "0.4.24+commit.e67f0147.Emscripten.clang"
  },
  "schemaVersion": "2.0.1",
  "updatedAt": "2018-11-20T08:37:58.713Z"
}